:020000040800F2
:1000000000500020052F0008212E0008292E00088E
:1000100000000000000000000000000000000000E0
:10002000000000000000000000000000B582000891
:100030000000000000000000D1830008312E0008FD
:10004000552F0008552F0008552F00084D2E000889
:10005000552F0008552F0008552F0008552F000870
:10006000552F0008552F0008552F0008552F000860
:10007000552F0008552F0008552F0008552F000850
:10008000552F0008552F0008552F000800000000CC
:10009000552F0008552F0008552F0008552F000830
:1000A000552F0008552F0008552F00085D2E000819
:1000B000552F0008752E000800000000552F00087D
:1000C00010B5064C2378002B07D1054B002B02D02E
:1000D000044800E000BF0123237010BDE4000020AD
:1000E00000000000148B0008044B10B5002B03D057
:1000F0000349044800E000BF10BDC04600000000F6
:10010000E8000020148B00080023C25C0133002AA1
:10011000FBD1581E70470000002243088B4274D365
:1001200003098B425FD3030A8B4244D3030B8B42F8
:1001300028D3030C8B420DD3FF22090212BA030C01
:100140008B4202D31212090265D0030B8B4219D3E2
:1001500000E0090AC30B8B4201D3CB03C01A524102
:10016000830B8B4201D38B03C01A5241430B8B424A
:1001700001D34B03C01A5241030B8B4201D30B0333
:10018000C01A5241C30A8B4201D3CB02C01A52415A
:10019000830A8B4201D38B02C01A5241430A8B421D
:1001A00001D34B02C01A5241030A8B4201D30B0206
:1001B000C01A5241CDD2C3098B4201D3CB01C01A20
:1001C000524183098B4201D38B01C01A524143092A
:1001D0008B4201D34B01C01A524103098B4201D318
:1001E0000B01C01A5241C3088B4201D3CB00C01A85
:1001F000524183088B4201D38B00C01A52414308FD
:100200008B4201D34B00C01A5241411A00D2014621
:10021000524110467047FFE701B5002000F006F894
:1002200002BDC0460029F7D076E770477047C04648
:10023000002B11D1002A0FD1002900D1002802D0B3
:100240000021C943080007B4024802A140180290E7
:1002500003BDC046D9FFFFFF03B4684601B502984D
:1002600000F006F8019B9E4602B00CBC7047C046E9
:10027000F0B557464E464546DE46E0B504000D0053
:100280009246994683B08B4230D82DD0494650468D
:1002900000F0BAF829000600200000F0B5F8331A83
:1002A0009846203B34D49B4653465A469340424698
:1002B0001F00534693401E00AF423BD8AF4200D1CF
:1002C00079E05B46A41BBD41002B00DA76E00022FA
:1002D00000230092019301235A4693400193012386
:1002E00042469340009329E08242CFD90022002366
:1002F000009201930C9B002B01D01C605D60009864
:10030000019903B0F0BCBB46B246A946A046F0BD79
:1003100042469B4620239B1A5246DA404146130030
:100320004A468A40170042461F43534693401E00E8
:10033000AF42C3D900220023009201934346002B11
:10034000D8D0FB0772081A4346467B080EE0AB4242
:1003500001D1A2420CD8A41A9D41012024196D415B
:100360000021013E24184D41002E06D0AB42EED9AB
:10037000013E24196D41002EF8D1009801995B4689
:1003800000196941002B24DB2B005A464446D34018
:100390002A00E2401C005B461500002B2ADB2600E9
:1003A0009E40330026004746BE403200801A9941E5
:1003B000009001919EE7A342BCD882E742462023E9
:1003C00000219B1A0022009101920122DA40019241
:1003D00085E7424620239B1A2A0046469A4023007E
:1003E000F340444613432A00E2401C005B461500DC
:1003F000002BD4DA42462F002023260097409B1A78
:10040000DE403B003343CDE710B5002903D100F0B7
:1004100007F8203002E0080000F002F810BDC046E6
:100420001C2101231B04984201D3000C10391B0A24
:10043000984201D3000A08391B09984201D30009E8
:10044000043902A2105C40187047C046040302023F
:1004500001010101000000000000000080B584B02F
:1004600000AFF860B9607A60FB68064A1A60BB6842
:10047000054A1A607B6880221A60C046BD4604B0F7
:1004800080BDC046000100205401002080B582B02C
:1004900000AF78607B6803229A737B680122DA736D
:1004A000C046BD4602B080BD80B582B000AF786066
:1004B0000A00BB1C1A80BB1C1B88DB089BB21A00FD
:1004C0007B689B181B781900BB1C1B8807221340F4
:1004D00019410B00012213405A1E9341DBB2180050
:1004E000BD4602B080BD80B582B000AF7860080024
:1004F0001100BB1C021C1A807B1C0A1C1A707B1C7E
:100500001B78002B1CD0BB1C1B88DB089BB21A007D
:100510007B689B181B785AB2BB1C1B8807210B40B9
:10052000012199400B005BB213435AB2BB1C1B88DC
:10053000DB089BB219007B685B18D2B21A701DE011
:10054000BB1C1B88DB089BB21A007B689B181B78BE
:100550005BB2BA1C128807210A40012191400A00AF
:1005600052B2D24352B213405AB2BB1C1B88DB08B2
:100570009BB219007B685B18D2B21A70C046BD46A8
:1005800002B080BD80B582B000AF0200BB1D1A80F2
:10059000BB1D1B880733DB109BB21800BD4602B0A1
:1005A00080BD80B584B000AF78600F217B187A6879
:1005B00012781A707B685A1C0E203B1812781A7039
:1005C0007B181B781AB23B181B781B021BB2134313
:1005D0001BB29BB21800BD4604B080BD80B582B08E
:1005E00000AF78600A00BB1C1A80BB1C1B88DAB203
:1005F0007B681A70BB1C1B881B0A9AB27B6801338C
:10060000D2B21A70BB1C1B881800BD4602B080BD58
:1006100080B584B000AF78607B685A1C0F217B18CE
:1006200012781A700E203B187A6812781A707B18AC
:100630001B781AB23B181B781B021BB213431BB268
:100640009BB21800BD4604B080BD80B582B000AF3B
:1006500078600A00BB1C1A80BB1C1B881B0A9BB25B
:10066000DAB27B681A707B680133BA1C1288D2B286
:100670001A70BB1C1B881800BD4602B080BD80B537
:1006800082B000AF0200BB1D1A803B1D0A1C1A80FD
:10069000BB1D1A883B1D1B8880214902CB1A0121F2
:1006A0009A4201DC0023191CCBB21800BD4602B0EF
:1006B00080BD80B582B000AF78603B1D1B789B0782
:1006C0009B0FDBB21800BD4602B080BD80B582B082
:1006D00000AF78603B1D1B781B069B0EDBB2180039
:1006E000BD4602B080BD80B582B000AF78607B6847
:1006F0001800FFF7DEFF031E07D17B681800FFF725
:10070000E5FF031E01D1012300E00023DBB2180046
:10071000BD4602B080BD80B582B000AF78603B1DA1
:100720001B7803221340DBB2002B05D17B68180035
:10073000FFF7CCFF030000E000231800BD4602B025
:1007400080BD80B582B000AF78603B1D1B7803226E
:100750001340DBB2012B05D17B681800FFF7B6FF11
:10076000030000E000231800BD4602B080BD80B544
:1007700082B000AF78607B685B691800BD4602B04C
:1007800080BD80B582B000AF78607B689B8B18001D
:10079000BD4602B080BD80B582B000AF78607B6896
:1007A0001B6A1800BD4602B080BD90B583B000AF93
:1007B00078600A00BB1C1A807B6810331C007B68C1
:1007C0001800FFF7E8FF0200BB1C1B88190020007F
:1007D00000F07FF803001800BD4603B090BD90B54F
:1007E00083B000AF78607B6810331C007B68180012
:1007F000FFF7D1FF03001900200000F057F8C046B2
:10080000BD4603B090BD80B586B000AFF8607A6099
:100810000A203B180A1C1A803B181B88002B08D1A1
:10082000FB685B68180007F0DDFFFB6800225A6078
:1008300018E0FB685B687B61FB685A680A23FB1859
:100840001B881900100008F089F80200FB685A6044
:10085000FB685B68002B05D17B69180007F0C2FFBD
:10086000022300E000231800BD4606B080BD80B51D
:1008700086B000AF786039607A68396811607A684C
:10088000002151607A68002191607A68002191818D
:100890007A68002191737A680021D173032293430F
:1008A000FC2293431800BD4606B080BD90B585B0CC
:1008B00000AF786039600F23FC183A687B6800212C
:1008C000180000F006F803002370C046BD4605B0CE
:1008D00090BDF0B587B000AFF8607A600A203B1891
:1008E0000A1C1A8016243B193A1812881A803B18E1
:1008F0001B88002B07D0FB689B7B19003B193A191A
:1009000012888A181A80FB681B681526BC197D6836
:100910001622BA181188F8682A0098470300237035
:10092000BB191B78022B04D01622BB181B88002B86
:1009300009D1FB6800225A60FB6800229A60FB68BC
:1009400000229A810BE0FB685B68FA68D27B9A18F8
:10095000FB689A60FB681622BA1812889A811523E0
:10096000FB181B781800BD4607B0F0BD80B584B0F9
:1009700000AF78600A00BB1C1A800E23FB1801220E
:1009800052421A800C23FB1800221A803AE00C23F2
:10099000FB181B887A68D3181B7819000E22BB1825
:1009A000BA1812884A401A800B23FB1808221A70C2
:1009B0001DE00E217B181B88012213400BD07B18F1
:1009C0007A18128852081A807B187A1812881449EB
:1009D0004A401A8005E00E22BB18BA181288520845
:1009E0001A800B217B181A787B18013A1A700B2396
:1009F000FB181B78002BDCD10C217B181A887B1884
:100A000001321A800C23FA18BB1C12881B889A42E8
:100A1000BDD30E23FB181B881800BD4604B080BD53
:100A200001A0FFFF80B584B000AFF860B9607A60C4
:100A30003B60FB68BA699A60FB681C22BA1812789E
:100A40001A73FB68BA681A60FB687A685A60FB68B8
:100A500000221A62FB6810333A6811001800FFF791
:100A600006FF03001800BD4604B080BDB0B582B0DB
:100A700000AF786008001100FB1C021C1A70BB1C40
:100A80000A1C1A707B685B68002B08D07B685B6867
:100A9000BA1C1578FA1C117878682A0098477B6888
:100AA00002211800FFF781FE031E0AD003239C4396
:100AB00023001C00FC239C432300082213431C003A
:100AC00016E07B689B69FA1C1278802149420A4330
:100AD000D2B21A707B689B690133BA1C12781A7003
:100AE00003239C4323001C00FC239C4323001C0085
:100AF00023001800BD4602B0B0BDB0B586B000AF4F
:100B0000F860B960FB1D1A701523FB18BA681278DB
:100B10001A701623FB1800221A8023E0FB689A68DB
:100B200016217B181B88DB00D3181B7815203A1878
:100B300012789A4210D1FB689A687B181B88DB00F8
:100B4000D3185C68FB1D1D78BA683B181978F868E3
:100B50002B00A047030016E016217B181A887B188B
:100B600001321A80FB681B7B1A001623FB181B88B6
:100B70009342D3D31523FB181978FB680122180080
:100B8000FFF774FF03001800BD4606B0B0BDF0B516
:100B900091B000AFF86008007A6019000B23FB18D1
:100BA000021C1A7008203B180A1C1A807B68BB6361
:100BB00036217B183A1812881A803523FB18012237
:100BC0001A701C23FB183B631A23FB18FB621923C2
:100BD000FB18BB627B181B88032B05D97B181A886E
:100BE00080235B009A4201D901232DE0BB6B1A7868
:100BF000BB6A1A703523FB181B78002B18D03626D9
:100C0000BB191B88023B9AB2BB6B11001800FFF79F
:100C1000ADFE03001D00BB191B88023BBA6BD31845
:100C20001800FFF7BEFC03009D4201D008230BE033
:100C3000BB6B5A1C3B6B1A603623FB181B88033BAB
:100C40009AB2FB6A1A8000233F217A1813700A00B7
:100C5000BB181B78002B13D0BB181B783F22134006
:100C6000DBB203229443220001210A4314003F22F5
:100C700013409B00FC229443220013431C009CE081
:100C80001922BB181B78002B13D0BB181B780B2222
:100C9000BA1812789A420CD003239C4323000122F5
:100CA00013431C00FC239C4323002C2213431C00F1
:100CB00083E0FB6810331800FFF7E8FBF9691A239B
:100CC000FB181B88DAB2FB681800FFF716FF030059
:100CD0007B617B691800FFF706FD031E01D17C696B
:100CE0006BE0FB689B8B002B5FD01923FB181B78F4
:100CF000002B0CD1FB681800FFF771FD03239C4308
:100D000023001C00FC239C4323001C0055E0FB68CF
:100D10005B69FA68928B7B6222217B181A802123FF
:100D2000FB180B22BA1812781A707B181B88032B39
:100D300005D97B181A8880235B009A4201D90122C9
:100D400019E07B6A2122BA1812781A7022217B18C6
:100D50001B88023B7A6AD5187B181B88023B9AB223
:100D60007B6A11001800FFF701FE0300190028003C
:100D7000FFF734FC00223F217B181A700A00BB18D1
:100D80001B78002B11D0BB181B783F221340DBB21D
:100D900003229443220014003F2213409B00FC22B4
:100DA0009443220013431C0007E003239C432300C9
:100DB0001C00FC239C4323001C0023001800BD469C
:100DC00011B0F0BDF0B58DB000AFF86008007A60EA
:100DD00019000B257B19021C1A700A203B180A1CEB
:100DE0001A703B181B78052B08D07B191978FB6803
:100DF00003221800FFF73AFE04008FE10B23FB18D3
:100E00001B78042B31D03DDC032B21D03ADC012BA5
:100E100002D0022B0ED035E02F23FB1804221A70CB
:100E20002C23FB18FA22D2001A802B23FB18012254
:100E30001A7032E02F23FB1808221A702C23FB189B
:100E4000FA22D2001A802B23FB1801221A7024E008
:100E50002F23FB1801221A702C23FB187D221A80E5
:100E60002B23FB1800221A7017E02F23FB180222F5
:100E70001A702C23FB187D221A802B23FB180022CA
:100E80001A700AE003239C4323001C00FC239C43AC
:100E900023000C2213431C0040E17B680133222213
:100EA000BD181800FFF7B4FB03002B807B680333E9
:100EB0002026BD191800FFF7ABFB03002B80BB19E0
:100EC0001B88002B06D0BA192C23FB1812881B880C
:100ED0009A4209D90B23FB181978FB6803221800E2
:100EE000FFF7C4FD040019E12023FB181A88222310
:100EF000FB181B8811001800FFF7C1FB031E09D067
:100F00000B23FB181978FB6802221800FFF7AEFDCF
:100F1000040003E110217B182F22BA1812781A70EE
:100F20007B1800225A707B1800225A807B180022FE
:100F30009A807B180B22BA1812789A712823FB1812
:100F400000221A8039E02223FA182823FB1812887D
:100F50001B88D3189AB210217B185A80FB681B6833
:100F60001E26BD191822BA187918F8689847030088
:100F70002B70BB191B78002B09D00B23FB18197899
:100F8000FB6804221800FFF771FD0400C6E0182278
:100F9000BB181B78002B0AD0BB181A780B23FB1840
:100FA0001978FB681800FFF761FD0400B6E02821FE
:100FB0007B181A887B1801321A802823FA182021FE
:100FC0007B1812881B889A42BDD32B23FB181B78F1
:100FD000002B07D07B181B881800FFF7D3FA0300FB
:100FE000DBB205E02023FB181B88DBB2DB18DBB289
:100FF0001F217A1813707B181B789BB202339AB2A8
:10100000FB6811001800FFF7D0FB031E0AD0032372
:101010009C4323001C00FC239C4323000822134311
:101020001C007BE0FB689B690B22BA1812781A70CF
:10103000FB689B6901331F22BA1812781A702723A4
:10104000FB1800221A700DE0FB689B6927217A18B3
:10105000127802329B1800221A707B181A787B18BB
:1010600001321A702723FA181F23FB1812781B78F5
:101070009A42E9D31023FB1802225A702423FB184A
:1010800000221A803AE02223FA1824257B191288BC
:101090001B88D3189AB210217B185A80FB681B68F2
:1010A0001826BA197918F86898472B23FB181B786B
:1010B000002B0ED0FB689B69981CBB195B885A1EDD
:1010C0009341DBB21A007B191B881900FFF70BFA5A
:1010D0000EE0FB689B692422BA1812885200023283
:1010E0009A181823FB185B8819001000FFF7ADFA57
:1010F00024217B181A887B1801321A802423FA18BD
:101100002023FB1812881B889A42BCD303239C43DC
:1011100023001C00FC239C4323001C002300180018
:10112000BD460DB0F0BDF0B58BB000AFF860080063
:101130007A6019000B257B19021C1A700A203B18D3
:101140000A1C1A703B181B78052B08D07B191978DC
:10115000FB6803221800FFF789FC0400C2E00B23A0
:10116000FB181B78052B01D1042200E00122272364
:10117000FB181A707B6801332422BD181800FFF792
:1011800047FA03002B807B6803332226BD19180021
:10119000FFF73EFA03002B802723FB181B78042B54
:1011A00013D1BB191B88002B0FD0BB191A88FF2342
:1011B0001B029A4209D00B23FB181978FB68032203
:1011C0001800FFF753FC04008CE014217B18272043
:1011D0003A1812781A707B1801225A707B18242250
:1011E000BA1812885A803B181B78042B07D1222387
:1011F000FB181B885A1E9341DBB21A0002E022231F
:10120000FB181A8814217B189A807B180B26BA19B0
:1012100012789A71FB681B682122BD181C203A18AD
:101220007918F868984703002B702122BB181B78A7
:10123000002B08D0BB191978FB6804221800FFF7AF
:1012400015FC04004EE01C22BB181B78002B0AD0B2
:10125000BB181A780B23FB181978FB681800FFF7E6
:1012600005FC04003EE014217B1803225A70FB6841
:101270001B681C22BA187918F8689847FB68052182
:101280001800FFF792FA031E0AD003239C432300A1
:101290001C00FC239C432300082213431C0021E074
:1012A000FB689B690B22BA1812781A70FB689B695D
:1012B0005A1C2423FB181B8819001000FFF7C5F9DE
:1012C000FB689B69DA1C2223FB181B88190010009D
:1012D000FFF7BBF903239C4323001C00FC239C4322
:1012E00023001C0023001800BD460BB0F0BDF0B574
:1012F0008DB000AFF86008007A6019000B257B19EB
:10130000021C1A700A203B180A1C1A703B181B7822
:10131000052B08D87B191978FB6803221800FFF702
:10132000A5FB04007DE10B23FB181B780F2B01D1DB
:10133000042200E001222B217B181A707B181B78F5
:10134000042B02D1F623DA0000E07B222823FB18CD
:101350001A807B6801332622BD181800FFF758F960
:1013600003002B807B6803332422BD181800FFF78D
:101370004FF903002B807B685A1D23217B181278BC
:101380001A700A00BB181B78002B07D0BB181A78FC
:101390000A23FB181B78063B9A4209D00B23FB1843
:1013A0001978FB6803221800FFF760FB040038E19E
:1013B00024217B181B88002B1BD07A182823FB18AC
:1013C00012881B889A4214D82323FB181D782B23DC
:1013D000FB181B78042B06D17B181B881800FFF71D
:1013E000D1F8030003E02423FB181B885B00AB4209
:1013F00009D00B23FB181978FB6803221800FFF7AC
:1014000035FB04000DE12423FB181A882623FB1862
:101410001B8811001800FFF732F9031E09D00B23B7
:10142000FB181978FB6802221800FFF71FFB040065
:10143000F7E014217B182B22BA1812781A707B1847
:1014400001225A707B1800225A807B1800229A8051
:101450007B180B22BA1812789A712E23FB180022DF
:101460001A8059E02623FA182E217B1812881B882F
:10147000D3189AB21423FB185A802B23FB181B781D
:10148000042B0AD17B689A1D7B181B881900100059
:10149000FFF70AF803001A000CE02E23FB181B8844
:1014A0005B0006331A007B689B181800FFF7B0F842
:1014B00003001A0014217B189A80FB681B682226FF
:1014C000BD191C22BA187918F868984703002B70C8
:1014D000BB191B78002B09D00B23FB181978FB686C
:1014E00004221800FFF7C2FA04009AE01C22BB187D
:1014F0001B78002B0AD0BB181A780B23FB1819781D
:10150000FB681800FFF7B2FA04008AE02E217B186E
:101510001A887B1801321A802E23FA182423FB180C
:1015200012881B889A429DD31423FB1803225A70F9
:101530002C23FB1800221A8037E02623FA182C21CE
:101540007B1812881B88D3189AB21423FB185A8070
:101550002B23FB181B78042B0AD17B689A1D7B1860
:101560001B8819001000FEF79FFF03001A000CE013
:101570002C23FB181B885B0006331A007B689B1822
:101580001800FFF745F803001A0014217B189A8011
:10159000FB681B681C22BA187918F86898472C2138
:1015A0007B181A887B1801321A802C23FA182423FE
:1015B000FB1812881B889A42BFD3FB6805211800CC
:1015C000FFF7F3F8031E0AD003239C4323001C00FB
:1015D000FC239C432300082213431C0021E0FB68EA
:1015E0009B690B22BA1812781A70FB689B695A1C07
:1015F0002623FB181B8819001000FFF726F8FB684C
:101600009B69DA1C2423FB181B8819001000FFF7C4
:101610001CF803239C4323001C00FC239C43230051
:101620001C0023001800BD460DB0F0BDF0B58BB016
:1016300000AFF86008007A6019000B257B19021CC6
:101640001A700A203B180A1C1A703B181B78072BCB
:1016500008D07B191978FB6803221800FFF706FAF7
:101660000400FCE07B6801332626BD191800FEF754
:10167000CFFF03002B807B6803332422BD181800A2
:10168000FEF7C6FF03002B807B6805332222BD18BE
:101690001800FEF7BDFF03002B8010217B180122EC
:1016A0001A707B1800225A707B18BA1912885A8057
:1016B0007B1800229A807B180B26BA1912789A712F
:1016C0007B1800225A70FB681B682122BD18182065
:1016D0003A187918F868984703002B702122BB1834
:1016E0001B78002B08D0BB191978FB68042218005E
:1016F000FFF7BCF90400B2E01822BB181B78002BDE
:101700000AD0BB181A780B23FB181978FB6818004D
:10171000FFF7ACF90400A2E010257B1902225A70F1
:10172000FB681B681826BA197919F86898471E20B3
:101730003B18BA1952881A803B1824217A181B8842
:10174000128813409BB21AB27B1800215B5EDB4308
:101750001BB29C46222179180023C95E63460B40C8
:101760001BB213431AB23B181A8029007B180122BE
:101770005A707B183A1812889A80FB681B682122DD
:10178000BD18BA197918F868984703002B70212200
:10179000BB181B78002B09D00B23FB181978FB68AA
:1017A00004221800FFF762F9040058E01822BB1861
:1017B0001B78002B0AD0BB181A780B23FB1819785A
:1017C000FB681800FFF752F9040048E010217B186D
:1017D00003225A70FB681B681822BA187918F86837
:1017E0009847FB6807211800FEF7DFFF031E0AD0A9
:1017F00003239C4323001C00FC239C43230008225A
:1018000013431C002BE0FB689B690B22BA1812786B
:101810001A70FB689B695A1C2623FB181B88190049
:101820001000FEF712FFFB689B69DA1C2423FB18EB
:101830001B8819001000FEF708FFFB689B695A1D02
:101840002223FB181B8819001000FEF7FEFE03235D
:101850009C4323001C00FC239C4323001C0023000A
:101860001800BD460BB0F0BD80B582B000AF786007
:101870007B68002B0CD07B681800FEF745FC03004A
:101880009AB296235B007968034804F0C9FAC0460F
:10189000C046BD4602B080BDC403002080B582B002
:1018A00000AF78607B68002B12D07B681800FEF7D1
:1018B0002BFC03009AB296235B007968064804F07B
:1018C000AFFA064904486423022204F0A9FAC0468C
:1018D000C046BD4602B080BDC40300202C8B00086A
:1018E00090B583B000AF78600A00BB1C1A807A689C
:1018F000344B9A4210D1344B1B685A1C324B1A603D
:10190000314B1B681F221A40304BD1182D4B01223E
:10191000180005F03DFE51E07A682D4B9A424DD1FA
:101920002C4B5B89D9B2BB1C1B882B4A2B48FFF779
:101930002EF903001A002A4B1A60294B1B68180065
:10194000FEF7E9FE031E07D0254B1B781B069B0EF6
:10195000DBB21A001F4B5A81214B1B681800FEF79F
:10196000F0FE031E0BD01E4B1B781B069B0EDBB23A
:101970001A00184B1A811B4B1800FFF78FFF184BEA
:101980001B681800FEF7AFFE031E10D0134B1800A3
:10199000FEF7EDFE0400114B1800FEF7F2FE030007
:1019A0001A00FA239B000A48210004F039FA0A4978
:1019B000074B1022180005F0EBFDC046C046BD469F
:1019C00003B090BDC4030020400500202005002086
:1019D0004C04002044050020B00500208C050020A8
:1019E000C4050020308B000880B582B000AF002312
:1019F0007B6007E030BF7B6801337B60114B1800D0
:101A0000FFF74CFF104B9B690122134003D07B680A
:101A10000E4A9342EEDD0C4B5B680122134005D069
:101A2000094B0B4ADA60084B0A4ADA60064B5A68DF
:101A3000054BC02189020A435A60C046BD4602B028
:101A400080BDC046408B0008002002408713000084
:101A5000EFCDAB890504030280B582B000AF78609A
:101A60000A00BB1C1A807B68BA1C12881A80094BBA
:101A70001800FFF713FF7B681B88BA1C12889A4274
:101A800003D0054B1800FFF709FFC046BD4602B062
:101A900080BDC046588B00087C8B000880B582B0A2
:101AA00000AF00237B6003E030BF7B6801337B60C5
:101AB0000C4B9B690122134004D07A68FA235B0027
:101AC0009A42F1DB074B5A68064B07490A405A60B5
:101AD000044B5A68034B01210A435A60C046BD4675
:101AE00002B080BD00200240FFFFFCFF80B582B045
:101AF00000AF054ABB1D12881A80BB1D1B88180049
:101B0000BD4602B080BDC0460000080880B582B066
:101B100000AF0200BB1D1A80FFF766FF114B1800D3
:101B2000FFF7BCFE104B5A680F4B10490A405A6031
:101B30000F4B1800FFF7B2FEBB1D1B880D4A1900A2
:101B40001000FFF789FF0C4B1800FFF7A7FEFFF707
:101B5000A5FF0A4B1800FFF7A1FEC046BD4602B024
:101B600080BDC046988B000800200240EFFDFFFFBB
:101B7000A88B000800000808B88B0008C88B000874
:101B800080B582B000AF00237B600EE03A4B7A68EC
:101B90009200D058394B7A685200D35A002219006B
:101BA00002F060FC7B6801337B607B68062BEDD91B
:101BB000334B3B603B6833480022002102F088F839
:101BC000304B0021180002F01BF82F4B1800FFF7D4
:101BD00065FE80239B002D480122190002F042FC83
:101BE0002B4B1800FFF75AFE642005F0A3FD294B8C
:101BF0001800FFF753FEA023DB0501224021180047
:101C000002F030FC244B1800FFF748FE642005F07A
:101C100091FD224B1800FFF741FEA023DB050122B6
:101C20002021180002F01EFC1D4B1800FFF736FEA5
:101C3000642005F07FFD1B4B1800FFF72FFE64208A
:101C400005F078FD184B1800FFF728FE174B180019
:101C5000FFF724FE164B1800FFF720FE154B180067
:101C6000FFF71CFE144B012200211800FEF73BFC7D
:101C7000C046BD4602B080BD60000020500000207C
:101C8000FF0F0000B0030020DC8B000800040050B0
:101C9000E88B0008F48B0008008C00080C8C00080E
:101CA000188C0008248C0008308C00083C8C00083C
:101CB000488C0008548C00088805002080B582B04C
:101CC00000AF00237B600EE0254B7A689200D0586D
:101CD000244B7A685200D35A0022190002F0C2FB4A
:101CE0007B6801337B607B68062BEDD91E4B3B6024
:101CF0003B681E480022002101F0EAFF1B4B002137
:101D0000180001F07DFF642005F014FDA023DB0521
:101D100000222021180002F0A5FB642005F00AFD36
:101D2000A023DB0500224021180002F09BFB642069
:101D300005F000FD80239B000D480022190002F0F1
:101D400091FB0C4B1800FFF7A9FD0B4B0022002163
:101D50001800FEF7C8FBC046BD4602B080BDC046B5
:101D60006000002050000020FF0F0000B0030020A2
:101D700000040050688C00088805002090B583B0EE
:101D800000AF1B4B180001F0EFFAFC1D184B64214B
:101D9000180001F07DFB03002370154B180001F0C3
:101DA00013FC03009AB2134BDA80114B180001F0B8
:101DB000DBFA0F4B6421180001F06AFB03001900E5
:101DC000FB1DFA1D12788A181A70094B180001F0D1
:101DD000FBFB03009AB2074B1A81054B180001F078
:101DE00017FBFB1D1B781800BD4603B090BDC04615
:101DF0005403002044050020B0B588B000AFF8605F
:101E0000B9607A601E23FB18BA6852881A80BB68D2
:101E10001B78082B32D03BDC042B28D038DC012B7C
:101E200002D0022B1AD033E0BB685A881E23FB185D
:101E3000C0498C4662441A80BB685B88002B26D15F
:101E4000BD4B5B89142B22D1BB689A88BA4B5A814F
:101E5000B94B5B891800FFF759FE18E0BB685A8838
:101E60001E23FB18B5498C4662441A8010E0BB68FB
:101E70005A881E23FB18013A1A8009E0BB685A8869
:101E80001E23FB18AE498C4662441A8000E0C0460F
:101E9000BB685B78032B00D17DE000DDA1E1012B65
:101EA00002DC002B03DA9CE1022B14D099E1BB6821
:101EB0001B781A00A34B5A82A24B1E217A18128853
:101EC0009A827B181B880F2B01D8002200E0022287
:101ED0007B681A7085E1BB681B78082B4DD000DD4C
:101EE0007EE1042B3CD000DD7AE1012B02D0022BF5
:101EF0002DD075E1BB685B88934A93421BD0924A10
:101F000093421BDC914A934215DD914A9446634407
:101F1000012B13D817257C19FFF730FF030023701E
:101F20007B191B78002B08D0864B9B8801339AB213
:101F3000844B9A8001E0C04600E0C0461E23FB1897
:101F40001A887D4B5200D25A7B685A8022E01E23A9
:101F5000FB181A887B4B5200D25A7B685A8019E0D2
:101F60001E23FB181A887B4B11001800FEF79CFA01
:101F700003001A007B685A800CE01E23FB181A88A5
:101F8000754B11001800FEF78FFA03001A007B68EA
:101F90005A80C04624E1BB681B78012B03D0042B78
:101FA00000D1A1E01BE1BB685B886C4A9A18BB6852
:101FB0009988614B5200D152BB685B88674A94464E
:101FC0006344052B00D907E19A00654BD3181B68C1
:101FD0009F46BB689B88022B14D034DC002B11D0A9
:101FE000012B30D15F4B1B680F22DA625D4B0F2251
:101FF000DA605C4B1B6807229A635A4B0421180075
:1020000003F00AFABB689B881A0002231340DA1710
:10201000D31ADB0FDBB21A0080231B0252481900CF
:1020200002F020FABB689B881A0001231340DA17DC
:10203000D31ADB0FDBB21A008023DB014A481900F8
:1020400002F010FA06E03F4BDB8801339AB23D4BB9
:10205000DA80C04647E01D23FB1800221A701FE0FB
:102060001D257B191A78414B9200D0587B191A789C
:102070003F4B5200D15ABB689B881C007B191B78D0
:1020800001229A4013002340DA17D31ADB0FDBB288
:102090001A0002F0E7F97B197A19127801321A70E6
:1020A0001D23FB181B78062BDAD91CE00023BB612B
:1020B000BB685B88294A9A181F4B5200D35ABB61F0
:1020C000BB692C480022002101F002FE294B0021AF
:1020D000180001F095FD06E0174B5B891800FFF72B
:1020E00015FD79E0C04677E0BB685B88013B99B29B
:1020F000BB689B88DAB2174B1800FEF7F4F9BB688F
:102100005B88032B59D069DC012B02D0022B46D00F
:1021100064E0194B01221A70BB689B88002B31D0F8
:10212000164B1800FFF7BAFB154B1800FFF7B6FB6C
:1021300030E0C046BF63000044050020CF8AFFFFA7
:10214000EFD8FFFF64050020469C0000439C000080
:10215000BC63FFFF8405002088050020BF63FFFFEC
:10216000B88D0008D4040020000800506000002052
:1021700050000020B0030020C00500207C8C000827
:10218000908C0008194B1800FFF788FB184B1800BB
:10219000FFF784FB174B1800FFF780FB1BE0164B83
:1021A0001800FFF77BFBBB689B88DAB280239B019A
:1021B0001248190002F056F90DE0114B1800FFF714
:1021C0006DFBBB689B88DAB2A023DB058021180079
:1021D00002F048F9C04601E0C04602E0C04600E017
:1021E000C04600231800BD4608B0B0BDA48C00084E
:1021F000B88C0008CC8C0008E08C00080008005067
:10220000F48C000890B58DB002AFA64B0122DA82A3
:10221000A44BA54A1A83A34BA44A5A83A14BA44AB0
:102220009A83A04B11221A8000F096FE00F078F9F4
:1022300000F06CFB00F0EAF900F05CFA00F088FABC
:1022400000F0B4FA00F0E2FA9A4B002220211800C4
:1022500002F008F980239B0197480022190002F040
:1022600001F980231B0294480022190002F0FAF8B9
:102270008023DB0190480022190002F0F3F88F4B15
:1022800000221A708B4B00220121180002F0EAF89C
:10229000884B00220221180002F0E4F8854B00224E
:1022A0000421180002F0DEF880235B008148002240
:1022B000190002F0D7F880231902A023DB050022C1
:1022C000180002F0CFF87B4B00224021180002F0EA
:1022D000C9F8784B00228021180002F0C3F880234F
:1022E0001901A023DB050022180002F0BBF8A0238F
:1022F000DB0500228021180002F0B4F8FFF7F6FB9E
:1023000003001A006E4B5A816D4B5B89002B02D182
:102310006B4B14225A81642000F08EFE694B1B68BF
:102320001F221A40684BD118684B0122180003F095
:1023300017FE674B1800FFF797FA20203B18654AF5
:102340001168196092889A8001007B181A787B18AE
:102350001A707B189B780133DAB27B189A707B185D
:102360001B790133DAB27B181A717B181800FFF75A
:1023700095FA594B1800FFF777FA514B5B89642B9C
:1023800004D9564B1800FFF789FA27E03B00544A5E
:102390001188198092789A703B001C78484B5B89B1
:1023A0000A211800FDF7B8FE03009BB2DBB2E31868
:1023B000DAB23B001A703B005C78414B5B890A2122
:1023C0001800FDF72FFF0B009BB2DBB2E318DAB267
:1023D0003B005A703B001800FFF760FA414BFA22AD
:1023E000D2011A603F4B1B685A083F4B1B68013AE9
:1023F000DA623C4B1B685B085A1E3B4BDA60394B78
:102400001B689A08384B1B68013A9A63374B0022C5
:102410001A700923364A374937480193374B0093DE
:1024200013000022FEF7FEFA03001A00344B1A6074
:10243000334B1B681800FEF756F9031E0BD1304BC7
:102440001B781B069B0EDBB21A001D4B5A812D4BCD
:102450001800FFF723FA2C4B1800FFF71FFA2B493F
:102460002B4B1022180005F093F82A4B1800FFF7A9
:1024700015FA3B1D284A13CA13C313CA13C31268A3
:102480001A603B1D0021180005F007F90200234BDC
:102490001A6005F0FAF8FA239B00180005F04AF9D3
:1024A000F9E7C046640500201127000031750000DF
:1024B000419CFFFF00040050000800501905002057
:1024C000440500204005002020050020C403002012
:1024D000088D0008648D00082C8D0008388D0008D8
:1024E0006C8D00081C050020D40400201805002075
:1024F00007080008F91D00088C05002000000020D6
:10250000C40500203C8D00084C8D0008B00500205B
:102510004C040020588D00087C8D00081405002014
:1025200090B59DB000AF38243B19180038231A002D
:10253000002106F04CFA2423FB18180014231A007B
:10254000002106F044FA3B00180024231A00002161
:1025500006F03DFA2B4B1B682B4A1A40294B802171
:1025600009010A431A6021007B1802221A607B18B5
:102570000122DA607B1810221A617B1802229A620B
:102580007B180022DA627B188022D2021A637B1841
:102590008022D2035A637B18180001F081FF031ECA
:1025A00001D000F0BDFA24217B180F221A607B189D
:1025B00003225A607B1800229A607B180022DA609E
:1025C0007B1800221A617B180121180002F03CFBE5
:1025D000031E01D000F0A4FA3B0005221A603B0064
:1025E00000229A603B0000221A613B00180002F0B2
:1025F0002FFD031E01D000F093FAC046BD461DB06A
:1026000090BDC04600700040FFE7FFFF80B582B07C
:1026100000AF3B00180008231A00002106F0D7F98C
:10262000304B314A1A602F4B0022DA632D4B802247
:10263000D2055A602B4B00229A602A4B00229A63E3
:10264000284B01221A61274B0022DA60254B2022F9
:1026500000219954234B212201219954214B00221E
:102660009A62204BC222FF325A621E4B2C2200215A
:1026700099541C4B04225A611A4B00221A63194BBD
:1026800000229A61174B00225A63164B0122DA612D
:10269000144B180000F0F4FC031E01D000F040FAC7
:1026A0003B00124A1A603B00802252015A603A00F5
:1026B0000C4B1100180000F093FF031E01D000F036
:1026C0002FFA3B000A4A1A603A00064B1100180024
:1026D00000F086FF031E01D000F022FAC046BD467E
:1026E00002B080BD54030020002401400400000813
:1026F0000800000C80B582B000AF3B001800082332
:102700001A00002106F063F90F4B104A1A600E4BB5
:10271000180001F005FA031E01D000F001FA3B0099
:1027200000221A603B0000225A603900064B00224A
:10273000180001F019FA031E01D000F0F1F9C046AB
:10274000BD4602B080BDC046B0030020007400400A
:1027500080B500AF134B144A1A60124BE1225202AB
:102760005A60104B00229A600E4B0022DA600D4B2B
:1027700000221A610B4B0C225A610A4B00229A610B
:10278000084B00221A62074B00225A62054B1800C0
:1027900003F0F2FA031E01D000F0C2F9C046BD46B4
:1027A00080BDC046C40300200048004080B500AF93
:1027B000144B154A1A60134BE12252025A60114B16
:1027C00000229A600F4B0022DA600E4B00221A6141
:1027D0000C4B0C225A610B4B00229A61094B0022D0
:1027E000DA61084B00221A62064B00225A62054B3E
:1027F000180003F0C1FA031E01D000F091F9C046A1
:10280000BD4680BD4C0400200038014080B58AB030
:1028100000AF1823FB18180010231A00002106F03F
:10282000D6F81023FB18180008231A00002106F020
:10283000CEF83B00180010231A00002106F0C7F85C
:102840002F4B304A1A602E4B00225A602C4B00222C
:102850009A602B4B2C4ADA60294B00221A61284BD4
:1028600000225A61264B180002F04EFD031E01D0D3
:1028700000F056F918217B18802252011A607A184C
:102880001F4B1100180002F01FFF031E01D000F0C3
:1028900047F91B4B180002F077FD031E01D000F032
:1028A0003FF910217B1800221A607B1800225A6021
:1028B0007A18134B1100180003F000FA031E01D020
:1028C00000F02EF93B0060221A603B0000225A60A3
:1028D0003B0000229A603B000022DA603900084B7E
:1028E0000422180002F02AFE031E01D000F018F99D
:1028F000034B180000F056FAC046BD460AB080BD32
:10290000D404002000140140FFFF000090B589B0FE
:1029100000AF0C243B19180014231A00002106F004
:1029200056F8544BDA6A534B04210A43DA62514B8E
:10293000DB6A04221340BB60BB684E4BDA6A4D4B26
:1029400001210A43DA624B4BDB6A012213407B60B0
:102950007B68484BDA6A474B02210A43DA62454BEF
:10296000DB6A022213403B603B68E0231B024248C3
:102970000022190001F076FD4049A023DB0500226A
:10298000180001F06FFD3E493E4B0022180001F097
:1029900069FD3B19E02212021A603B1901225A60BC
:1029A0003B1900229A603B190022DA603B19324A37
:1029B0001900100001F0D8FB3B19304A1A603B198E
:1029C00001225A603B1900229A603B190022DA600A
:1029D0003A19A023DB051100180001F0C5FB3B19D3
:1029E000274A1A603B1901225A603B1900229A605B
:1029F0003B190022DA603B19224A1900100001F04D
:102A0000B3FB21007B18E022D2011A600C003B19B5
:102A100000225A603B1900229A603B19194A19009A
:102A2000100001F0A1FB3B19802252011A603B19F2
:102A3000882252035A603B1900229A603A19A02357
:102A4000DB051100180001F08FFB21007B1810221C
:102A50001A607B18882252035A607B1800229A6001
:102A60007B18084A1900100001F07EFBC046BD46E5
:102A700009B090BD0010024000080050E08800003E
:102A8000C70300000004005080B584B000AF786038
:102A90000F23FB1830221A70642004F04BFE0F2124
:102AA0007B181A787B1801321A707B181B78392B27
:102AB00002D97B1830221A70154B0F22BA181278DF
:102AC0001A70144B1B78002B14D0134B00211800E4
:102AD000FDF7EAFC031E05D00D4B31229A70FFF77B
:102AE0004FF804E00A4B30229A70FFF7E7F8094BE1
:102AF00000221A70064B1800FEF7B6FE074B1800AE
:102B0000FEF7CCFEFA239B00180004F013FEC3E787
:102B10007C000020C005002084050020988D00085E
:102B200080B500AF72B6C046C046FDE780B500AFC5
:102B30000F4B5A6B0E4B01210A435A630C4B9A6B95
:102B40000B4B802149050A439A6302235B42002212
:102B50000321180000F0B2FF00220321032000F03F
:102B6000ADFF032000F0BFFFC046BD4680BDC0469C
:102B70000010024090B589B000AF78600C243B197A
:102B8000180014231A00002105F021FF7B681B6840
:102B9000144A934222D1144B5A6B134B8021890063
:102BA0000A435A63104BDA6A0F4B01210A43DA6277
:102BB0000D4BDB6A01221340BB60BB683B190C2242
:102BC0001A603B1903225A603B1900229A603A1995
:102BD000A023DB051100180001F0C6FAC046BD466F
:102BE00009B090BD002401400010024090B589B0AA
:102BF00000AF78600C243B19180014231A00002140
:102C000005F0E5FE7B681B68144A934222D1144B01
:102C10009A6B134B802189050A439A63104BDA6A39
:102C20000F4B01210A43DA620D4BDB6A012213408C
:102C3000BB60BB683B1910221A603B1903225A6023
:102C40003B1900229A603A19A023DB0511001800F5
:102C500001F08AFAC046BD4609B090BD007400403C
:102C60000010024090B58BB000AF786014243B197F
:102C7000180014231A00002105F0A9FE7B681B68C8
:102C8000384A934232D1384B9A6B374B8021C90274
:102C90000A439A63344BDA6A334B02210A43DA62FD
:102CA000314BDB6A022213403B613B693B19C02276
:102CB00012011A6021007B1802225A607B18002240
:102CC0009A607B180322DA607B1804221A617B1851
:102CD000264A1900100001F047FA002203211D20A6
:102CE00000F0ECFE1D2000F0FEFE37E07B681B6864
:102CF0001F4A934232D11C4B5A6B1B4B8021C90196
:102D00000A435A63184BDA6A174B01210A43DA6205
:102D1000154BDB6A01221340FB60FB6814217B1812
:102D2000C022D2001A607B1802225A607B1800224F
:102D30009A607B180322DA607B1804221A617A18E1
:102D4000A023DB051100180001F00EFA0022032178
:102D50001B2000F0B3FE1B2000F0C5FEC046BD46A0
:102D60000BB090BD0048004000100240000400502D
:102D70000038014080B582B000AF78607B681B6886
:102D8000064A934205D1064B5A6B054B20210A4354
:102D90005A63C046BD4602B080BDC0460014014023
:102DA0000010024090B589B000AF78600C243B1948
:102DB000180014231A00002105F009FE7B681B6827
:102DC000144A934221D1144BDA6A134B02210A436D
:102DD000DA62114BDB6A02221340BB60BB68210040
:102DE0007B1820221A607B1802225A607B1800226E
:102DF0009A607B180022DA607B1804221A617B1823
:102E0000064A1900100001F0AFF9C046BD4609B0EE
:102E100090BDC04600140140001002400004005064
:102E200080B500AFC046FDE780B500AFC046FDE706
:102E300080B500AF00F0E4F805F08AF90300012B3B
:102E400001D005F0E9FAC046BD4680BD80B500AFAF
:102E500000F0E8FFC046BD4680BD000080B500AF71
:102E6000034B180003F0DAF8C046BD4680BDC046EB
:102E70004C04002080B500AF034B180003F0CEF8DF
:102E8000C046BD4680BDC046C403002080B586B0A4
:102E900000AF7860144A154BD31A7B617B693B61A4
:102EA000134B1B68002B02D1114B124A1A60104BB6
:102EB0001A687B68D3183A699A4207D205F0A2FDD6
:102EC00003000C221A6001235B4209E0084B1B68D7
:102ED000FB60074B1A687B68D218054B1A60FB68C9
:102EE0001800BD4606B080BD005000200004000060
:102EF000C80500207814002080B500AFC046BD464C
:102F000080BD00000D488546FFF7F6FF0C480D49CF
:102F10000D4A002302E0D458C4500433C4188C4234
:102F2000F9D30A4A0A4C002301E013600432A2429A
:102F3000FBD305F06DFDFFF765F9FEE700500020BB
:102F400000000020E40000204C8E0008E400002077
:102F500074140020FEE7000080B582B000AFFB1DB6
:102F600000221A700B4B1A680A4B40210A431A6060
:102F7000032000F011F8031E03D0FB1D01221A707C
:102F800001E0FFF7D3FDFB1D1B781800BD4602B022
:102F900080BDC0460020024090B583B000AF78608D
:102FA000144B1C68144B1B781900FA239800FDF78A
:102FB000B3F8030019002000FDF7AEF80300180075
:102FC00000F0A1FD031E01D001230FE07B68032B5D
:102FD0000BD8796801235B420022180000F06EFDD7
:102FE000064B7A681A60002300E001231800BD46F2
:102FF00003B090BD840000208C00002088000020D9
:1030000080B500AF054B1B781A00054B1B68D21822
:10301000034B1A60C046BD4680BDC0468C000020F0
:10302000CC05002080B500AF024B1B681800BD46E0
:1030300080BDC046CC05002080B584B000AF78606C
:10304000FFF7F0FF0300BB607B68FB60FB680133A8
:1030500005D00A4B1B781A00FB689B18FB60C04622
:10306000FFF7E0FF0200BB68D31AFA689A42F7D86C
:10307000C046C046BD4604B080BDC0468C0000209E
:1030800080B582B000AF78607B68002B01D101234E
:1030900059E17B685B6D002B0AD17B6800229A6541
:1030A0007B685022002199547B681800FFF762FD6D
:1030B0007B685B6D10221340102B05D07B681B686A
:1030C0009B68042213400BD07B685B6D10221A436F
:1030D0007B685A657B68502200219954012332E1B4
:1030E0007B685B6D9A4A134002221A437B685A65DB
:1030F0007B681B689B6803221340012B08D17B6807
:103100001B681B6801221340012B01D1012300E041
:103110000023002B49D17B685A68C0231B069A42C2
:103120000BD07B685A688023DB059A4205D07B6808
:103130005A6880231B069A4211D17B681B681A6962
:103140007B681B68920092081A617B681B6819698A
:103150007B685A687B681B680A431A6114E07B68C5
:103160001B681A697B681B68920092081A61794B88
:103170001A68784B78490A401A60764B19687B6860
:103180005A68744B0A431A607B681B68DA687B686C
:103190001B6818218A43DA607B681B68D9687B68E2
:1031A0009A687B681B680A43DA606A4B1A68694B45
:1031B0006A490A401A60674B19687B685B6B5A065C
:1031C000644B0A431A607B681B689A6880235B051E
:1031D000134008D17B681B689A687B681B68802154
:1031E00049050A439A607B681B68DA687B681B683C
:1031F0005B490A40DA607B681B68D9687B68DA68DB
:103200007B681B69022B01D1042300E000231A43D1
:103210007B6820201B5C5B031A437B682C201B5CB3
:103220005B001A437B681B6B1A437B689B699B039B
:103230001A437B68DB69DB031A437B681B680A431C
:10324000DA607B685A6AC223FF339A420BD07B68EC
:103250001B68D9687B685A6A7B689B6A1A437B68DB
:103260001B680A43DA607B6821229B5C012B1AD120
:103270007B6820229B5C002B09D17B681B68DA6885
:103280007B681B68802149020A43DA600BE07B6897
:103290005B6D20221A437B685A657B689B6D012217
:1032A0001A437B689A657B68DB6B012B1FD17B68B7
:1032B0001B681A697B681B682A490A401A617B6887
:1032C0001B6819697B681A6C7B685B6C1A437B68A6
:1032D0009B6C1A437B681B680A431A617B681B68F6
:1032E0001A697B681B6801210A431A610EE07B683A
:1032F0001B681B6901221340012B07D17B681B68E7
:103300001A697B681B6801218A431A617B681B6804
:103310005A697B681B6807218A435A617B681B686E
:1033200059697B689A6B7B681B680A435A617B68A2
:1033300000229A657B685B6D0322934301221A4346
:103340007B685A6500231800BD4602B080BDC046A8
:10335000FDFEFFFF08270140FFFFC3FFFFFFFFFD4A
:103360001902FEFF03FCFFFF90B585B000AF786047
:103370000F23FB1800221A707B681B689B680422CD
:10338000134038D17B6850229B5C012B01D1022372
:1033900038E07B685022012199547B68DB69012B5E
:1033A00007D00F23FC187B68180000F09FF903007A
:1033B00023700F23FB181B78002B20D17B685B6DDB
:1033C000124A1340802252001A437B685A657B6878
:1033D00000229A657B685022002199547B681B6803
:1033E0001C221A607B681B689A687B681B68042132
:1033F0000A439A6003E00F23FB1802221A700F237E
:10340000FB181B781800BD4605B090BDFEF0FFFF0D
:10341000B0B584B000AF78600F23FB1800221A709B
:103420007B6850229B5C012B01D1022329E07B6841
:103430005022012199540F257C197B68180000F057
:1034400024FA030023707B191B78002B12D17C19FE
:103450007B68180000F0B2F9030023707B191B7819
:10346000002B07D17B685B6D084A134001221A4389
:103470007B685A657B685022002199540F23FB1802
:103480001B781800BD4604B0B0BDC046FEFEFFFF6D
:1034900080B584B000AF786039600023BB60002342
:1034A000FB607B685B69082B02D10823FB6014E09A
:1034B0007B681B68DB6801221340012B0BD17B6802
:1034C0005B6D20221A437B685A657B68502200217D
:1034D0009954012372E00C23FB60FFF7A3FD030066
:1034E000BB601FE03B6801331CD03B68002B07D05A
:1034F000FFF798FD0200BB68D31A3A689A4211D2CE
:103500007B681B681B68FA6813400BD17B685B6D96
:1035100004221A437B685A657B6850220021995423
:1035200003234BE07B681B681B68FA681340D9D003
:103530007B685B6D802292001A437B685A657B68CA
:103540001B68DA68C0231B0113402ED17B68202240
:103550009B5C002B29D17B681B681B6808221340E9
:10356000082B22D17B681B689B680422134010D172
:103570007B681B685A687B681B680C218A435A6009
:103580007B685B6D0F4A134001221A437B685A65C2
:103590000BE07B685B6D20221A437B685A657B6871
:1035A0009B6D01221A437B689A657B689B69002B9F
:1035B00003D17B681B680C221A6000231800BD46EB
:1035C00004B080BDFEFEFFFF80B582B000AF786022
:1035D0007B681B681B6C1800BD4602B080BD0000F4
:1035E00080B582B000AF786039607B6850229B5C08
:1035F000012B01D102236CE07B68502201219954F8
:103600007B681B689B68042213400BD07B685B6D52
:1036100020221A437B685A657B6850220021995406
:10362000012356E03B685B682C4A934228D07B68B4
:103630001B68996A3B681B685B035A0B7B681B68B5
:103640000A439A623B681A688023DB02134009D060
:10365000234B1A68224B802109040A431A600A206E
:1036600000F060F93B681A6880239B0213402BD05E
:103670001B4B1A681A4B8021C9030A431A6023E0C6
:103680007B681B689A6A3B681B685B035B0BD943CA
:103690007B681B680A409A623B681A688023DB02D9
:1036A000134005D00E4B1A680D4B0E490A401A60A4
:1036B0003B681A6880239B02134005D0084B1A68A8
:1036C000074B09490A401A607B685022002199542F
:1036D00000231800BD4602B080BDC04601100000A6
:1036E00008270140FFFF7FFFFFFFBFFF80B584B0C9
:1036F00000AF78600023FB607B681B689B68032237
:103700001340012B08D17B681B681B680122134002
:10371000012B01D1012300E00023002B46D17B685F
:103720001B689B68244A13400DD07B685B6D102298
:103730001A437B685A657B689B6D01221A437B683C
:103740009A65012333E07B681B689A687B681B6875
:1037500001210A439A60012000F0E4F8FFF762FCBF
:103760000300FB601BE0FFF75DFC0200FB68D31A5F
:103770000A2B14D97B681B681B6801221340012B9C
:103780000DD07B685B6D10221A437B685A657B689D
:103790009B6D01221A437B689A65012307E07B68D1
:1037A0001B681B6801221340012BDCD10023180089
:1037B000BD4604B080BDC0461700008080B584B00F
:1037C00000AF78600023FB607B681B689B68032266
:1037D0001340012B08D17B681B681B680122134032
:1037E000012B01D1012300E00023002B48D07B688E
:1037F0001B689B6805221340012B10D17B681B6856
:103800009A687B681B6802210A439A607B681B6880
:1038100003221A60FFF706FC0300FB6029E07B68C7
:103820005B6D10221A437B685A657B689B6D012291
:103830001A437B689A65012323E0FFF7F3FB02003C
:10384000FB68D31A0A2B14D97B681B689B6801227A
:103850001340012B0DD17B685B6D10221A437B68EE
:103860005A657B689B6D01221A437B689A65012328
:1038700007E07B681B689B6801221340012BDCD0AA
:1038800000231800BD4604B080BD80B584B000AFF1
:1038900078600023FB607B681B689B6804221340F0
:1038A0003AD07B681B689B6804221340042B0DD11F
:1038B0007B681B689B680222134007D17B681B68EA
:1038C0009A687B681B6810210A439A60FFF7AAFB7D
:1038D0000300FB601AE0FFF7A5FB0200FB68D31AA8
:1038E0000A2B13D97B681B689B68042213400DD0F8
:1038F0007B685B6D10221A437B685A657B689B6D01
:1039000001221A437B689A65012306E07B681B68E5
:103910009B6804221340DED100231800BD4604B08A
:1039200080BD000080B584B000AF78600B4B1B6891
:103930000B491800FCF7F0FB03001A007B685343A7
:10394000FB6002E0FB68013BFB60FB68002BF9D1E8
:10395000C046C046BD4604B080BDC04684000020BD
:1039600040420F0080B582B000AF0200FB1D1A700C
:10397000FB1D1B787F2B09D8FB1D1B781A001F230A
:103980001A40044B012191400A001A60C046BD460E
:1039900002B080BD00E100E090B583B000AF02004E
:1039A0003960FB1D1A70FB1D1B787F2B28D82F4A0E
:1039B000FB1D1B785BB29B08C0339B009B58FA1D14
:1039C0001278110003220A40D200FF2191400A0020
:1039D000D2431A4011003B689B01FF221A40FB1D95
:1039E0001B78180003230340DB009A401F48FB1D8F
:1039F0001B785BB29B080A43C0339B001A5031E02E
:103A00001B4AFB1D1B7819000F230B40083B9B082A
:103A100006339B00D31804331B68FA1D127811007B
:103A200003220A40D200FF2191400A00D2431A40EB
:103A300011003B689B01FF221A40FB1D1B781800F8
:103A400003230340DB009A400948FB1D1B781C0040
:103A50000F232340083B9B080A4306339B00C318EF
:103A600004331A60C046BD4603B090BD00E100E0DB
:103A700000ED00E080B582B000AF78607B685A1E30
:103A800080235B049A4201D3012310E00A4B7A6839
:103A9000013A5A6001235B4203211800FFF77CFFC3
:103AA000054B00229A60044B07221A60002318007D
:103AB000BD4602B080BDC04610E000E080B584B0D5
:103AC00000AFB9607A600F217B18021C1A70BA68C7
:103AD0007B181B785BB211001800FFF75DFFC04632
:103AE000BD4604B080BD80B582B000AF0200FB1DB2
:103AF0001A70FB1D1B785BB21800FFF733FFC0463E
:103B0000BD4602B080BD80B582B000AF78607B68F2
:103B10001800FFF7AFFF03001800BD4602B080BDDC
:103B200080B582B000AF78607B68002B01D10123A3
:103B300015E07B681B79DBB2002B06D17B68002285
:103B40005A717B681800FFF751F87B6802221A71DE
:103B50007B6800221A617B6801221A710023180019
:103B6000BD4602B080BD000080B586B000AFF860F1
:103B7000B9607A6000237B6100233B61FB685B795D
:103B8000012B01D1022335E0FB6801225A71FB6849
:103B900002221A71FB681B681B687B61174A7B68ED
:103BA0009A401300DA437B6913407B61BB681A6853
:103BB000BB685B6813433B613A697B689A401300BA
:103BC0007A6913437B61FB681B687A691A60FB683A
:103BD0001B681A68C0217B6899400B00D943FB68B9
:103BE0001B680A401A60FB6801221A71FB680022F8
:103BF0005A7100231800BD4606B080BDFE0F0000BC
:103C000080B584B000AF786039600023FB6000238A
:103C1000BB607B685B79012B01D1022354E07B6898
:103C200001225A717B6802221A717B681B6819682D
:103C300001223B689A407B681B680A431A603B6814
:103C4000002B1AD17B681B681B6804221340FB60A1
:103C50007B681B681B6838221340BB60FB68042B21
:103C60002BD1BB68382B28D17B681B685A687B68CE
:103C70001B6801210A435A601FE07B681B681A68B1
:103C80008023DB021340FB607B681B681A68E0231B
:103C90009B031340BB60FA688023DB029A420CD17D
:103CA000BA68E0239B039A4207D17B681B685A6875
:103CB0007B681B6802210A435A607B6801221A71E3
:103CC0007B6800225A7100231800BD4604B080BDF5
:103CD00080B586B000AFF860B9607A603B600023C1
:103CE0007B61FB681B687B61BB68002B05D17A692F
:103CF0007B68D31808337B6104E07A697B68D3184A
:103D000014337B617B693A681A6000231800BD4652
:103D100006B080BD80B584B000AF78600F23FB187B
:103D200000221A707B6825229B5CDBB2022B08D034
:103D30007B680422DA637B682422002199540123E2
:103D400024E07B681B681A687B681B680E218A4325
:103D50001A607B681B681A687B681B6801218A43AC
:103D60001A607B685B6C1C221A407B681B6C01210B
:103D700091400A005A607B682522012199547B6892
:103D80002422002199540F23FB181B781800BD46EC
:103D900004B080BD80B584B000AF78600F217B187F
:103DA00000221A707B6825229B5CDBB2022B06D0B6
:103DB0007B680422DA637B1801221A702AE07B6890
:103DC0001B681A687B681B680E218A431A607B682F
:103DD0001B681A687B681B6801218A431A607B682C
:103DE0005B6C1C221A407B681B6C012191400A000D
:103DF0005A607B682522012199547B682422002186
:103E000099547B689B6B002B04D07B689B6B7A6812
:103E1000100098470F23FB181B781800BD4604B00C
:103E200080BD000080B582B000AF00237B60624B94
:103E30009A6980235B001A4080235B009A4235D048
:103E40005D4B9A6980239B001A4080239B009A4215
:103E50002CD0594B9A698023DB001A408023DB0069
:103E60009A4223D0544B9A6980231B011A40802325
:103E70001B019A421AD0504B9A6980239B011A4029
:103E800080239B019A4211D04B4B9A6980239B025D
:103E90001A4080239B029A4208D0474B9A6980239C
:103EA0005B021A4080235B029A4218D1434B1B7875
:103EB000DBB2012B07D1414BDB687B603F4B01221A
:103EC0005242DA6002E03D4B9B687B6000F08EF866
:103ED0007B68180000F082F8384B00221A70364BCD
:103EE0009B6902221340022B4ED1334B02229A616E
:103EF000324B1B78DBB2002B46D0304B1B78DBB249
:103F0000012B2FD12D4B5B685A1E2C4B5A602B4B2B
:103F10005B68002B18D0294BDB687B607B6818003E
:103F200000F054F8254BDB6880337B60234B7A68C4
:103F3000DA60214B5A68204B21490A405A607B685D
:103F4000180000F0EFF81FE001235B427B601B4B81
:103F50007A68DA60194B00221A707B68180000F04A
:103F600035F811E0144B5A68134B08218A435A6004
:103F7000124B9B68180000F029F8104B01225242A6
:103F80009A600E4B00221A700C4B1B78DBB2002B90
:103F90000ED1094B5A68084B0A490A405A60064B31
:103FA0005A68054B08490A405A60044B00221A74AB
:103FB000C046BD4602B080BD00200240D0050020B2
:103FC000FFFDFFFFF7FDFFFFFFFFFCFF80B582B0A5
:103FD00000AF7860C046BD4602B080BD80B582B0FB
:103FE00000AF7860C046BD4602B080BD80B582B0EB
:103FF00000AF00237B60494B9A6980235B001A4025
:1040000080235B009A420AD1454B5B6902221A4326
:10401000434B5A617B688022520013437B603F4BC5
:104020009A6980239B001A4080239B009A420AD100
:104030003B4B5B6901221A43394B5A617B688022F2
:10404000920013437B60354B9A698023DB001A4052
:104050008023DB009A420AD1314B5B6908221A4364
:104060002F4B5A617B688022D20013437B602B4B1D
:104070009A6980231B011A4080231B019A420AD1AE
:10408000274B5B6904221A43254B5A617B688022C7
:10409000120113437B60214B9A6980239B011A40D4
:1040A00080239B019A420AD11D4B5B6910221A435F
:1040B0001B4B5A617B688022920113437B60174B34
:1040C0009A6980239B021A4080239B029A4209D15D
:1040D000134B5B6920221A43114B5A617B682022E3
:1040E00013437B600D4B9A6980235B021A40802347
:1040F0005B029A420AD10A4B5B6940221A43084B81
:104100005A617B688022520213437B60034B7A68BA
:104110009A61C046BD4602B080BDC0460020024044
:10412000D005002080B582B000AF78600C4B002233
:104130005A610C4B5A680B4B802189000A435A6024
:10414000084B5A68074B08210A435A607B687F2254
:10415000934300221A60C046BD4602B080BDC046EF
:10416000D00500200020024080B586B000AF786006
:10417000396000237B610023FB6000233B6155E134
:104180003B681B6801217A6991400A001340FB607B
:10419000FB68002B00D146E13B685B6803221340BB
:1041A000012B05D03B685B6803221340022B30D102
:1041B0007B689B683B617B695B0003229A4013002C
:1041C000DA433B6913403B613B68DA687B695B001B
:1041D0009A4013003A6913433B617B683A699A60DD
:1041E0007B685B683B6101227B699A401300DA437C
:1041F0003B6913403B613B685B681B0901221A4025
:104200007B699A4013003A6913433B617B683A69C2
:104210005A603B685B6803221340032B17D07B680E
:10422000DB683B617B695B0003229A401300DA4341
:104230003B6913403B613B689A687B695B009A402D
:1042400013003A6913433B617B683A69DA603B6863
:104250005B6803221340022B23D17B69DA087B6859
:1042600008329200D3583B617B69072213409B00C0
:104270000F229A401300DA433B6913403B613B68CD
:104280001A697B6907210B409B009A4013003A6929
:1042900013433B617B69DA087B6808329200396915
:1042A000D1507B681B683B617B695B0003229A40AD
:1042B0001300DA433B6913403B613B685B680322B0
:1042C0001A407B695B009A4013003A6913433B61D3
:1042D0007B683A691A603B685A68C0239B021340A6
:1042E00000D1A0E0574B5A6B564B01210A435A6349
:1042F000554A7B699B0802339B009B583B617B6955
:10430000032213409B000F229A401300DA433B69BB
:1043100013403B617A68A023DB059A421FD07B687B
:104320004A4A934219D07B68494A934213D07B682A
:10433000484A93420DD07B68474A934207D07B6836
:10434000464A934201D105230AE0062308E00423EC
:1043500006E0032304E0022302E0012300E000233F
:104360007A6903210A40920093403A6913433B6102
:1043700035497B699B0802339B003A695A50384B98
:104380009B683B61FB68DA433B6913403B613B68D8
:104390005A6880235B03134003D03A69FB681343D8
:1043A0003B612F4B3A699A602D4BDB683B61FB68A0
:1043B000DA433B6913403B613B685A6880239B03A7
:1043C000134003D03A69FB6813433B61244B3A69BD
:1043D000DA60234B5B683B61FB68DA433B6913405F
:1043E0003B613B685A6880239B02134003D03A69C3
:1043F000FB6813433B611A4B3A695A60184B1B68C0
:104400003B61FB68DA433B6913403B613B685A6898
:1044100080235B02134003D03A69FB6813433B617E
:104420000F4B3A691A607B6901337B613B681A68FC
:104430007B69DA40131E00D0A2E6C046C046BD46E6
:1044400006B080BD00100240000001400004005092
:1044500000080050000C005000100050001C0050DC
:104460000004014080B582B000AF78600800110000
:10447000BB1C021C1A807B1C0A1C1A707B1C1B783C
:10448000002B04D0BB1C1A887B689A6103E0BB1C1C
:104490001A887B689A62C046BD4602B080BD0000A3
:1044A000B0B58AB000AF78607B68002B02D10123E1
:1044B00000F0BFFBC94BDB680C221340FB61C74B0C
:1044C000DA6880235B021340BB617B681B680122B2
:1044D000134000D17EE0FB69082B07D0FB690C2B51
:1044E00012D1BA6980235B029A420DD1BB4B1A6884
:1044F00080239B02134000D16BE07B685B68002B3C
:1045000067D1012300F095FB7B685A6880235B022A
:104510009A4207D1B14B1A68B04B802149020A4335
:104520001A6027E07B685A68A023DB029A420ED10A
:10453000AA4B1A68A94B8021C9020A431A60A74BEB
:104540001A68A64B802149020A431A6012E0A34B65
:104550001A68A24BA2490A401A60A04B1A6880232D
:104560005B021340FB60FB689C4B1A689B4B9D49A8
:104570000A401A607B685B68002B15D0FEF752FD7D
:1045800003007B6109E0FEF74DFD02007B69D31A51
:10459000642B02D9032300F04CFB904B1A68802354
:1045A0009B021340EFD015E0FEF73CFD03007B615A
:1045B00008E0FEF737FD02007B69D31A642B01D9AE
:1045C000032336E3854B1A6880239B021340F0D106
:1045D00000E0C0467B681B680222134000D199E0CE
:1045E0007B68DB687B627B6A2022134009D07B4BAF
:1045F0001A687A4B20210A431A607B6A202293436F
:104600007B62FB69042B05D0FB690C2B3ED1BB6997
:10461000002B3BD1714B1B680422134004D07B6AF2
:10462000002B01D1012304E36C4B5B686E4A1340FD
:1046300019007B681B691A02684B0A435A60674B72
:104640001B68092293431900644B7A6A0A431A6073
:1046500000F042FC0100614BDB681B090F22134094
:10466000624AD35C0A00DA40614B1A60614B1B68F6
:1046700013257C191800FEF78FFC030023707B19AB
:104680001B78002B46D07B191B78D2E27B6A002B6B
:1046900027D0524B1B680922934319004F4B7A6A6B
:1046A0000A431A60FEF7BEFC03007B6108E0FEF7D8
:1046B000B9FC02007B69D31A022B01D90323B8E2AB
:1046C000464B1B6804221340F1D0444B5B68464ABA
:1046D000134019007B681B691A02404B0A435A6059
:1046E00018E03E4B1A683D4B01218A431A60FEF7E1
:1046F00099FC03007B6108E0FEF794FC02007B69F3
:10470000D31A022B01D9032393E2344B1B680422F2
:104710001340F1D17B681B681022134000D1A2E046
:10472000FB69002B40D12D4B1A6880239B0013405E
:1047300005D07B68DB69002B01D1012379E2274B8F
:104740005B682D4A134019007B685A6A234B0A4361
:104750005A60224B5B681B02190A7B681B6A1A06A7
:104760001E4B0A435A607B685B6A5B0B01338022F5
:1047700012029A40194BDB681B090F210B401B49A1
:10478000CB5CDA401A4B1A601A4B1B6813257C1954
:104790001800FEF701FC030023707B191B78002B27
:1047A00061D07B191B7844E27B68DB69002B40D029
:1047B0000A4B1A68094B802149000A431A60FEF728
:1047C00031FC03007B6119E0FEF72CFC02007B69E1
:1047D000D31A022B12D903232BE2C0460010024049
:1047E000FFFFFEFFFFFFFBFFFFE0FFFFD08D000894
:1047F0008400002088000020FF1FFFFFCA4B1A68BA
:1048000080239B001340DFD0C74B5B68C74A13402F
:1048100019007B685A6AC44B0A435A60C24B5B68F2
:104820001B02190A7B681B6A1A06BF4B0A435A60AF
:1048300019E0BD4B1A68BC4BBD490A401A60FEF72F
:10484000F1FB03007B6108E0FEF7ECFB02007B69F3
:10485000D31A022B01D90323EBE1B34B1A6880234F
:104860009B001340F0D17B681B680822134036D0B0
:104870007B685B69002B19D0AB4B1A6DAA4B0121E9
:104880000A431A65FEF7CEFB03007B6108E0FEF7E2
:10489000C9FB02007B69D31A022B01D90323C8E1AB
:1048A000A14B1B6D02221340F1D018E09E4B1A6DF4
:1048B0009D4B01218A431A65FEF7B4FB03007B611F
:1048C00008E0FEF7AFFB02007B69D31A022B01D987
:1048D0000323AEE1944B1B6D02221340F1D17B68A0
:1048E0001B680422134000D1AEE023203B180022B5
:1048F0001A708D4B9A6B80235B05134009D18A4B4C
:104900009A6B894B802149050A439A633B1801221F
:104910001A70884B1A6880235B0013401AD1854BAC
:104920001A68844B802149000A431A60FEF77AFB1B
:1049300003007B6108E0FEF775FB02007B69D31A78
:10494000642B01D9032374E17A4B1A6880235B003E
:104950001340F0D07B689A6880235B009A4207D1AD
:10496000714B1A6D704B802149000A431A6531E082
:104970007B689B68002B0CD16B4B1A6D6A4B6C49A2
:104980000A401A65684B1A6D674B6B490A401A65F5
:1049900020E07B689A68A023DB009A420ED1624B2C
:1049A0001A6D614B8021C9000A431A655E4B1A6D6E
:1049B0005D4B802149000A431A650BE05A4B1A6D82
:1049C000594B5B490A401A65574B1A6D564B5A4969
:1049D0000A401A657B689B68002B15D0FEF722FB06
:1049E00003007B6109E0FEF71DFB02007B69D31A1F
:1049F000524A934201D903231BE14B4B1A6D80238A
:104A00009B001340EFD014E0FEF70CFB03007B612A
:104A100009E0FEF707FB02007B69D31A474A93427D
:104A200001D9032305E1404B1A6D80239B001340FD
:104A3000EFD12323FB181B78012B05D13A4B9A6B3E
:104A4000394B3F490A409A637B681B682022134018
:104A500049D07B689B69002B26D0334B9A68324B38
:104A600001210A439A60304B5A6B2F4B01210A43B4
:104A70005A63344B1A6A334B802189010A431A6204
:104A8000FEF7D0FA03007B6108E0FEF7CBFA0200E4
:104A90007B69D31A022B01D90323CAE0224B9B68FE
:104AA00002221340F1D01EE01F4B9A681E4B0121D9
:104AB0008A439A60234B1A6A224B23490A401A629E
:104AC000FEF7B0FA03007B6108E0FEF7ABFA0200E4
:104AD0007B69D31A022B01D90323AAE0124B9B68EE
:104AE00002221340F1D17B689B6A002B00D19FE02A
:104AF000FB690C2B00D178E07B689B6A022B59D1B3
:104B0000094B1A68084B11490A401A60FEF78AFAE5
:104B100003007B611CE0FEF785FA02007B69D31A73
:104B2000022B15D9032384E000100240FF1FFFFF72
:104B3000FFFEFFFF00700040FFFBFFFF8813000037
:104B4000FFFFFFEF00000140FFDFFFFFFFFFFFFE61
:104B50003A4B1A6880239B041340DCD1374BDB6847
:104B6000374A134019007B68DA6A7B681B6B1A436B
:104B70007B685B6B1A43314B0A43DA602F4B1A6830
:104B80002E4B802149040A431A60FEF74BFA0300BA
:104B90007B6108E0FEF746FA02007B69D31A022B1C
:104BA00001D9032345E0254B1A6880239B04134059
:104BB000F0D03DE0214B1A68204B22490A401A6090
:104BC000FEF730FA03007B6108E0FEF72BFA0200E3
:104BD0007B69D31A022B01D903232AE0174B1A68E9
:104BE00080239B041340F0D122E07B689B6A012B59
:104BF00001D101231DE0114BDB68BB61BA69802341
:104C00005B021A407B68DB6A9A420FD1BA69F023D3
:104C10009B031A407B681B6B9A4207D1BA69C02379
:104C20001B041A407B685B6B9A4201D0012300E0B1
:104C300000231800BD460AB0B0BDC04600100240B7
:104C4000FFFF02FFFFFFFFFEB0B584B000AF78604A
:104C500039607B68002B01D1012328E1964B1B684A
:104C6000012213403A689A421ED9934B1B680122D5
:104C700093431900904B3A680A431A60FEF7D2F941
:104C80000300FB6009E0FEF7CDF90200FB68D31AD0
:104C90008A4A934201D9032309E1874B1B68012209
:104CA00013403A689A42EED17B681B680222134097
:104CB00009D0834BDB68F022934319007B689A6824
:104CC0007F4B0A43DA607B681B680122134000D1E6
:104CD00089E07B685B68022B07D1794B1A688023D7
:104CE0009B02134020D10123E1E07B685B68032B2A
:104CF00007D1734B1A6880239B04134014D10123FE
:104D0000D5E07B685B68012B06D16D4B1B680422E4
:104D1000134009D10123CAE0694B1A6880239B0024
:104D2000134001D10123C2E0654BDB6803229343AA
:104D300019007B685A68624B0A43DA60FEF772F921
:104D40000300FB607B685B68022B11D109E0FEF772
:104D500069F90200FB68D31A584A934201D9032328
:104D6000A5E0574BDB680C221340082BEFD13AE04B
:104D70007B685B68032B11D109E0FEF753F9020051
:104D8000FB68D31A4D4A934201D903238FE04C4B61
:104D9000DB680C2213400C2BEFD124E07B685B68AE
:104DA000012B1BD109E0FEF73DF90200FB68D31A85
:104DB000424A934201D9032379E0414BDB680C223C
:104DC0001340042BEFD10EE0FEF72CF90200FB6834
:104DD000D31A3A4A934201D9032368E0384BDB687F
:104DE0000C221340F0D1344B1B68012213403A6867
:104DF0009A421ED2304B1B680122934319002E4B5E
:104E00003A680A431A60FEF70DF90300FB6009E0F7
:104E1000FEF708F90200FB68D31A284A934201D929
:104E2000032344E0244B1B68012213403A689A4252
:104E3000EED17B681B680422134009D0204BDB684D
:104E4000204A134019007B68DA681D4B0A43DA6078
:104E50007B681B68082213400AD0194BDB681A4A8A
:104E6000134019007B681B69DA00154B0A43DA60AE
:104E700000F032F80100124BDB681B090F221340CF
:104E8000124AD35C0A00DA40114B1A60114B1B68BE
:104E90000B257C191800FEF77FF8030023707B199F
:104EA0001B78002B02D07B191B7800E00023180030
:104EB000BD4604B0B0BDC0460020024088130000CB
:104EC00000100240FFF8FFFFFFC7FFFFD08D000872
:104ED000840000208800002080B586B000AF3C4BE5
:104EE000DB68FB60FB680C2213400C2B13D05CD8F2
:104EF000042B02D0082B0BD057E0354B1B68102237
:104F0000134002D0334B3B615DE0334B3B615AE0D1
:104F1000324B3B6157E0FB689B0C0F221340304A39
:104F2000D35CBB60FB689B0D0322134001337B60A5
:104F3000274BDA6880235B0213400FD0B9680A0060
:104F40005201521A93019B1ADB005B185B027968CD
:104F50001800FBF7E1F803007B6123E01C4B1B68A2
:104F6000102213400FD0B9680A005201521A93015F
:104F70009B1ADB005B181B0279681800FBF7CCF862
:104F800003007B610EE0B9680A005201521A9301D6
:104F90009B1ADB005B189B0279681800FBF7BCF8D2
:104FA00003007B617B693B610DE0094B5B685B0B38
:104FB000072213403B603B680133802212029A4073
:104FC00013003B61C0463B691800BD4606B080BD7A
:104FD0000010024000093D000024F40000127A0095
:104FE000E88D000880B500AF024B1B681800BD4675
:104FF00080BDC0468400002080B500AFFFF7F2FFFF
:105000000100064BDB681B0A07221340044AD35CED
:10501000D9400B001800BD4680BDC04600100240BC
:10502000E08D000880B500AFFFF7DCFF0100064B04
:10503000DB68DB0A07221340044AD35CD9400B002B
:105040001800BD4680BDC04600100240E08D00083B
:1050500080B586B000AF786017203B1800221A7028
:105060007B681B682022134000D1C7E09B4B9A6BE2
:1050700080235B05134009D1984B9A6B974B802195
:1050800049050A439A633B1801221A70944B1A6827
:1050900080235B0013401AD1914B1A68904B8021FA
:1050A00049000A431A60FDF7BDFF03003B6108E0B9
:1050B000FDF7B8FF02003B69D31A642B01D9032323
:1050C00007E1874B1A6880235B001340F0D0834BC5
:1050D0001A68C0239B031340FB607B685A68C02397
:1050E0009B031340FA689A4213D07B685A68C02326
:1050F0009B021A40C0239B029A420AD1774B1A683E
:1051000080239B021A4080239B029A4201D10123F3
:10511000DFE0724B1A6DC0239B021340FB60FB68FB
:10512000002B3BD07B685A68C0239B021340FA686F
:105130009A4233D07B681B68202213402ED0674BE5
:105140001B6D684A1340FB60644B1A6D634B8021F2
:1051500009030A431A65614B1A6D604B62490A40A4
:105160001A655E4BFA681A65FA6880235B00134083
:1051700014D0FDF757FF03003B6109E0FDF752FF34
:1051800002003B69D31A594A934201D90323A0E094
:10519000524B1A6D80239B001340EFD07B681B6835
:1051A000202213401FD07B685A68C0239B021A40FC
:1051B000C0239B029A420CD1484B1B684C4A1340B7
:1051C00019007B685A68C0239B031A40434B0A436B
:1051D0001A60424B196D7B685A68C0239B021A40C3
:1051E0003E4B0A431A651723FB181B78012B05D188
:1051F0003A4B9A6B394B3F490A409A637B681B686C
:105200000122134009D0354BDB6C03229343190074
:105210007B689A68314B0A43DA647B681B68022218
:10522000134009D02D4BDB6C0C22934319007B6893
:10523000DA682A4B0A43DA647B681B68042213404D
:1052400009D0264BDB6C2C4A134019007B681A6985
:10525000224B0A43DA647B681B680822134009D09A
:105260001E4BDB6C254A134019007B685A691B4BA7
:105270000A43DA647B681A6880235B00134009D014
:10528000164BDB6C174A134019007B689A69134B65
:105290000A43DA647B681B684022134009D00F4B35
:1052A000DB6C174A134019007B681A6A0B4B0A43E0
:1052B000DA647B681B688022134009D0074BDB6CE3
:1052C000104A134019007B68DA69044B0A43DA6418
:1052D00000231800BD4606B080BDC0460010024045
:1052E00000700040FFFFFCFFFFFFF7FF8813000086
:1052F000FFFFCFFFFFFFFFEFFFF3FFFFFFCFFFFF3A
:10530000FFFFFFFBFFFFF3FF80B582B000AF7860C7
:105310007B68002B01D1012332E07B6839229B5C42
:10532000DBB2002B07D17B683822002199547B68BF
:105330001800FDF71FFD7B683922022199547B6814
:105340001A687B6804331900100000F091FA7B683A
:105350003E22012199547B683A22012199547B68AD
:105360003B22012199547B683C22012199547B689E
:105370003D22012199547B6839220121995400234F
:105380001800BD4602B080BD80B582B000AF786025
:105390007B68002B01D1012332E07B6839229B5CC2
:1053A000DBB2002B07D17B683822002199547B683F
:1053B000180000F029F87B683922022199547B6893
:1053C0001A687B6804331900100000F051FA7B68FA
:1053D0003E22012199547B683A22012199547B682D
:1053E0003B22012199547B683C22012199547B681E
:1053F0003D22012199547B683922012199540023CF
:105400001800BD4602B080BD80B582B000AF7860A4
:10541000C046BD4602B080BD80B584B000AF7860A4
:1054200039603B68002B08D17B683A229B5CDBB279
:10543000013B5A1E9341DBB21FE03B68042B08D1AD
:105440007B683B229B5CDBB2013B5A1E9341DBB283
:1054500013E03B68082B08D17B683C229B5CDBB2E5
:10546000013B5A1E9341DBB207E07B683D229B5C07
:10547000DBB2013B5A1E9341DBB2002B01D001236A
:1054800052E03B68002B04D17B683A2202219954F8
:1054900013E03B68042B04D17B683B220221995422
:1054A0000BE03B68082B04D17B683C220221995415
:1054B00003E07B683D22022199547B681B683968B0
:1054C0000122180000F0D6FB7B681A688023DB05F8
:1054D0009A420ED07B681B68154A934209D07B68BC
:1054E0001B68144A934204D07B681B68124A93429B
:1054F00011D17B681B689B6807221340FB60FB6827
:10550000062B10D07B681B681A687B681B6801211A
:105510000A431A6007E07B681B681A687B681B688F
:1055200001210A431A6000231800BD4604B080BD63
:1055300000040040000801400014014080B586B01E
:1055400000AFF860B9607A601723FB1800221A7068
:10555000FB6838229B5C012B01D10223ADE0FB6884
:105560003822012199547B680C2B00D176E07B68AE
:105570000C2B00D995E07B68082B4ED07B68082B5C
:1055800000D98EE07B68002B03D07B68042B21D0F0
:1055900087E0FB681B68BA681100180000F0CCF9BE
:1055A000FB681B689A69FB681B6808210A439A61BB
:1055B000FB681B689A69FB681B6804218A439A612F
:1055C000FB681B689969BB68DA68FB681B680A435B
:1055D0009A616BE0FB681B68BA681100180000F064
:1055E000E7F9FB681B689A69FB681B688021090161
:1055F0000A439A61FB681B689A69FB681B6831491A
:105600000A409A61FB681B689969BB68DB681A02EB
:10561000FB681B680A439A6148E0FB681B68BA682C
:105620001100180000F006FAFB681B68DA69FB68D5
:105630001B6808210A43DA61FB681B68DA69FB68AA
:105640001B6804218A43DA61FB681B68D969BB685F
:10565000DA68FB681B680A43DA6127E0FB681B68AD
:10566000BA681100180000F025FAFB681B68DA69B7
:10567000FB681B68802109010A43DA61FB681B682B
:10568000DA69FB681B680F490A40DA61FB681B682E
:10569000D969BB68DB681A02FB681B680A43DA61D8
:1056A00004E01723FB1801221A70C046FB68382259
:1056B000002199541723FB181B781800BD4606B02B
:1056C00080BDC046FFFBFFFF80B584B000AF7860AF
:1056D00039600F23FB1800221A707B6838229B5C0C
:1056E000012B01D10223BCE07B68382201219954AF
:1056F0007B683922022199547B681B689B68BB60D8
:10570000BB6877229343BB60BB68584A1340BB60B9
:105710007B681B68BA689A603B681B6880229201AC
:10572000934240D080229201934200D988E08022A7
:105730005201934200D188E080225201934200D965
:105740007EE0702B18D000D97AE0602B4FD000D9C2
:1057500076E0502B3BD000D972E0402B57D000D9D7
:105760006EE0302B63D06BD8202B60D068D8002B34
:105770005DD0102B5BD063E07B6818683B6899684C
:105780003B685A683B68DB6800F054FA7B681B682A
:105790009B68BB60BB6877221343BB607B681B6858
:1057A000BA689A6052E07B6818683B6899683B6801
:1057B0005A683B68DB6800F03DFA7B681B689A68B2
:1057C0007B681B688021C9010A439A603EE07B68C0
:1057D00018683B6859683B68DB681A0000F0B0F94C
:1057E0007B681B685021180000F00AFA2EE07B68E5
:1057F00018683B6859683B68DB681A0000F0CEF90E
:105800007B681B686021180000F0FAF91EE07B68D5
:1058100018683B6859683B68DB681A0000F090F92B
:105820007B681B684021180000F0EAF90EE07B68F5
:105830001A683B681B681900100000F0E1F905E0E8
:105840000F23FB1801221A7000E0C0467B68392242
:10585000012199547B683822002199540F23FB18A9
:105860001B781800BD4604B080BDC046FF00FFFF96
:1058700080B584B000AF786039607B681B68FB60DE
:105880007A688023DB059A420BD07B68264A9342D4
:1058900007D07B68254A934203D07B68244A934211
:1058A00008D1FB6870229343FB603B685B68FA6831
:1058B0001343FB607A688023DB059A420BD07B6838
:1058C000194A934207D07B68184A934203D07B68F9
:1058D000174A934208D1FB68164A1340FB603B68A5
:1058E000DB68FA681343FB60FB68802293431A006D
:1058F0003B681B691343FB603B689A687B68DA620C
:105900003B681A687B689A627B681B6804221A43AA
:105910007B681A607B6801225A617B68FA681A60AA
:10592000C046BD4604B080BD0004004000080140F0
:1059300000140140FFFCFFFF80B586B000AF786027
:1059400039607B681B6A7B617B681B6A0122934319
:105950001A007B681A627B685B683B617B689B69A5
:10596000FB60FB6870229343FB60FB680322934358
:10597000FB603B681B68FA681343FB607B6902228B
:1059800093437B613B689B687A6913437B617B68C7
:105990003A695A607B68FA689A613B685A687B6822
:1059A0005A637B687A691A62C046BD4606B080BDFC
:1059B00080B586B000AF786039607B681B6A7B6118
:1059C0007B681B6A102293431A007B681A627B680B
:1059D0005B683B617B689B69FB60FB68134A134013
:1059E000FB60FB68124A1340FB603B681B681B02AC
:1059F000FA681343FB607B69202293437B613B6819
:105A00009B681B017A6913437B617B683A695A6022
:105A10007B68FA689A613B685A687B689A637B681E
:105A20007A691A62C046BD4606B080BDFF8FFFFF8F
:105A3000FFFCFFFF80B586B000AF786039607B68FF
:105A40001B6A7B617B681B6A184A1A407B681A6272
:105A50007B685B683B617B68DB69FB60FB6870228D
:105A60009343FB60FB6803229343FB603B681B6826
:105A7000FA681343FB607B690D4A13407B613B6806
:105A80009B681B027A6913437B617B683A695A60A1
:105A90007B68FA68DA613B685A687B68DA637B681E
:105AA0007A691A62C046BD4606B080BDFFFEFFFFA0
:105AB000FFFDFFFF80B586B000AF786039607B687E
:105AC0001B6A7B617B681B6A194A1A407B681A62F1
:105AD0007B685B683B617B68DB69FB60FB68154A40
